{
  "contractName": "ERC20",
  "abi": [
    {
      "inputs": [
        {
          "internalType": "string",
          "name": "name",
          "type": "string"
        },
        {
          "internalType": "string",
          "name": "symbol",
          "type": "string"
        },
        {
          "internalType": "uint256",
          "name": "decimals",
          "type": "uint256"
        }
      ],
      "payable": false,
      "stateMutability": "nonpayable",
      "type": "constructor"
    },
    {
      "constant": true,
      "inputs": [],
      "name": "owner",
      "outputs": [
        {
          "internalType": "address",
          "name": "",
          "type": "address"
        }
      ],
      "payable": false,
      "stateMutability": "view",
      "type": "function"
    },
    {
      "constant": true,
      "inputs": [],
      "name": "name",
      "outputs": [
        {
          "internalType": "string",
          "name": "",
          "type": "string"
        }
      ],
      "payable": false,
      "stateMutability": "view",
      "type": "function"
    },
    {
      "constant": true,
      "inputs": [],
      "name": "symbol",
      "outputs": [
        {
          "internalType": "string",
          "name": "",
          "type": "string"
        }
      ],
      "payable": false,
      "stateMutability": "view",
      "type": "function"
    },
    {
      "constant": true,
      "inputs": [],
      "name": "decimals",
      "outputs": [
        {
          "internalType": "uint256",
          "name": "",
          "type": "uint256"
        }
      ],
      "payable": false,
      "stateMutability": "view",
      "type": "function"
    },
    {
      "constant": true,
      "inputs": [],
      "name": "totalSupply",
      "outputs": [
        {
          "internalType": "uint256",
          "name": "",
          "type": "uint256"
        }
      ],
      "payable": false,
      "stateMutability": "view",
      "type": "function"
    },
    {
      "constant": true,
      "inputs": [
        {
          "internalType": "address",
          "name": "_account",
          "type": "address"
        }
      ],
      "name": "balanceOf",
      "outputs": [
        {
          "internalType": "uint256",
          "name": "",
          "type": "uint256"
        }
      ],
      "payable": false,
      "stateMutability": "view",
      "type": "function"
    },
    {
      "constant": false,
      "inputs": [
        {
          "internalType": "address",
          "name": "_account",
          "type": "address"
        },
        {
          "internalType": "uint256",
          "name": "_amount",
          "type": "uint256"
        }
      ],
      "name": "mint",
      "outputs": [],
      "payable": false,
      "stateMutability": "nonpayable",
      "type": "function"
    },
    {
      "constant": false,
      "inputs": [
        {
          "internalType": "address",
          "name": "_recipient",
          "type": "address"
        },
        {
          "internalType": "uint256",
          "name": "_amount",
          "type": "uint256"
        }
      ],
      "name": "transfer",
      "outputs": [
        {
          "internalType": "bool",
          "name": "",
          "type": "bool"
        }
      ],
      "payable": false,
      "stateMutability": "nonpayable",
      "type": "function"
    }
  ],
  "bytecode": "0x60806040526000809054906101000a900473ffffffffffffffffffffffffffffffffffffffff16600160006101000a81548173ffffffffffffffffffffffffffffffffffffffff021916908373ffffffffffffffffffffffffffffffffffffffff1602179055503480156200007357600080fd5b5060405162000e5438038062000e54833981810160405260608110156200009957600080fd5b8101908080516040519392919084640100000000821115620000ba57600080fd5b83820191506020820185811115620000d157600080fd5b8251866001820283011164010000000082111715620000ef57600080fd5b8083526020830192505050908051906020019080838360005b838110156200012557808201518184015260208101905062000108565b50505050905090810190601f168015620001535780820380516001836020036101000a031916815260200191505b50604052602001805160405193929190846401000000008211156200017757600080fd5b838201915060208201858111156200018e57600080fd5b8251866001820283011164010000000082111715620001ac57600080fd5b8083526020830192505050908051906020019080838360005b83811015620001e2578082015181840152602081019050620001c5565b50505050905090810190601f168015620002105780820380516001836020036101000a031916815260200191505b5060405260200180519060200190929190505050336000806101000a81548173ffffffffffffffffffffffffffffffffffffffff021916908373ffffffffffffffffffffffffffffffffffffffff16021790555082600290805190602001906200027c929190620002a6565b50816003908051906020019062000295929190620002a6565b508060048190555050505062000355565b828054600181600116156101000203166002900490600052602060002090601f016020900481019282601f10620002e957805160ff19168380011785556200031a565b828001600101855582156200031a579182015b8281111562000319578251825591602001919060010190620002fc565b5b5090506200032991906200032d565b5090565b6200035291905b808211156200034e57600081600090555060010162000334565b5090565b90565b610aef80620003656000396000f3fe608060405234801561001057600080fd5b50600436106100885760003560e01c806370a082311161005b57806370a082311461019a5780638da5cb5b146101f257806395d89b411461023c578063a9059cbb146102bf57610088565b806306fdde031461008d57806318160ddd14610110578063313ce5671461012e57806340c10f191461014c575b600080fd5b610095610325565b6040518080602001828103825283818151815260200191508051906020019080838360005b838110156100d55780820151818401526020810190506100ba565b50505050905090810190601f1680156101025780820380516001836020036101000a031916815260200191505b509250505060405180910390f35b6101186103c7565b6040518082815260200191505060405180910390f35b6101366103d1565b6040518082815260200191505060405180910390f35b6101986004803603604081101561016257600080fd5b81019080803573ffffffffffffffffffffffffffffffffffffffff169060200190929190803590602001909291905050506103db565b005b6101dc600480360360208110156101b057600080fd5b81019080803573ffffffffffffffffffffffffffffffffffffffff16906020019092919050505061058b565b6040518082815260200191505060405180910390f35b6101fa6105d4565b604051808273ffffffffffffffffffffffffffffffffffffffff1673ffffffffffffffffffffffffffffffffffffffff16815260200191505060405180910390f35b6102446105f9565b6040518080602001828103825283818151815260200191508051906020019080838360005b83811015610284578082015181840152602081019050610269565b50505050905090810190601f1680156102b15780820380516001836020036101000a031916815260200191505b509250505060405180910390f35b61030b600480360360408110156102d557600080fd5b81019080803573ffffffffffffffffffffffffffffffffffffffff1690602001909291908035906020019092919050505061069b565b604051808215151515815260200191505060405180910390f35b606060028054600181600116156101000203166002900480601f0160208091040260200160405190810160405280929190818152602001828054600181600116156101000203166002900480156103bd5780601f10610392576101008083540402835291602001916103bd565b820191906000526020600020905b8154815290600101906020018083116103a057829003601f168201915b5050505050905090565b6000600554905090565b6000600454905090565b6000809054906101000a900473ffffffffffffffffffffffffffffffffffffffff1673ffffffffffffffffffffffffffffffffffffffff163373ffffffffffffffffffffffffffffffffffffffff161461043457600080fd5b600073ffffffffffffffffffffffffffffffffffffffff168273ffffffffffffffffffffffffffffffffffffffff1614156104d7576040517f08c379a00000000000000000000000000000000000000000000000000000000081526004018080602001828103825260188152602001807f6d696e7420746f20746865207a65726f2061646472657373000000000000000081525060200191505060405180910390fd5b6104ec8160055461092890919063ffffffff16565b60058190555061054481600660008573ffffffffffffffffffffffffffffffffffffffff1673ffffffffffffffffffffffffffffffffffffffff1681526020019081526020016000205461092890919063ffffffff16565b600660008473ffffffffffffffffffffffffffffffffffffffff1673ffffffffffffffffffffffffffffffffffffffff168152602001908152602001600020819055505050565b6000600660008373ffffffffffffffffffffffffffffffffffffffff1673ffffffffffffffffffffffffffffffffffffffff168152602001908152602001600020549050919050565b6000809054906101000a900473ffffffffffffffffffffffffffffffffffffffff1681565b606060038054600181600116156101000203166002900480601f0160208091040260200160405190810160405280929190818152602001828054600181600116156101000203166002900480156106915780601f1061066657610100808354040283529160200191610691565b820191906000526020600020905b81548152906001019060200180831161067457829003601f168201915b5050505050905090565b60008073ffffffffffffffffffffffffffffffffffffffff168373ffffffffffffffffffffffffffffffffffffffff16141561073f576040517f08c379a000000000000000000000000000000000000000000000000000000000815260040180806020018281038252601c8152602001807f7472616e7366657220746f20746865207a65726f20616464726573730000000081525060200191505060405180910390fd5b81600660003373ffffffffffffffffffffffffffffffffffffffff1673ffffffffffffffffffffffffffffffffffffffff1681526020019081526020016000205410156107f4576040517f08c379a00000000000000000000000000000000000000000000000000000000081526004018080602001828103825260148152602001807f496e73756666696369656e742062616c616e636500000000000000000000000081525060200191505060405180910390fd5b61084682600660003373ffffffffffffffffffffffffffffffffffffffff1673ffffffffffffffffffffffffffffffffffffffff168152602001908152602001600020546109b090919063ffffffff16565b600660003373ffffffffffffffffffffffffffffffffffffffff1673ffffffffffffffffffffffffffffffffffffffff168152602001908152602001600020819055506108db82600660008673ffffffffffffffffffffffffffffffffffffffff1673ffffffffffffffffffffffffffffffffffffffff1681526020019081526020016000205461092890919063ffffffff16565b600660008573ffffffffffffffffffffffffffffffffffffffff1673ffffffffffffffffffffffffffffffffffffffff168152602001908152602001600020819055506001905092915050565b6000808284019050838110156109a6576040517f08c379a000000000000000000000000000000000000000000000000000000000815260040180806020018281038252601b8152602001807f536166654d6174683a206164646974696f6e206f766572666c6f77000000000081525060200191505060405180910390fd5b8091505092915050565b60006109f283836040518060400160405280601e81526020017f536166654d6174683a207375627472616374696f6e206f766572666c6f7700008152506109fa565b905092915050565b6000838311158290610aa7576040517f08c379a00000000000000000000000000000000000000000000000000000000081526004018080602001828103825283818151815260200191508051906020019080838360005b83811015610a6c578082015181840152602081019050610a51565b50505050905090810190601f168015610a995780820380516001836020036101000a031916815260200191505b509250505060405180910390fd5b506000838503905080915050939250505056fea265627a7a72315820f6262129a087e0b54032fe4e14e3b446ea8b24682390edbbbd728c0c05de5b3264736f6c634300050c0032",
  "source": "pragma solidity 0.5.12;\r\n\r\n// Import file Ownable.sol\r\nimport \"./Ownable.sol\";\r\n// Import file Safemath.sol\r\nimport \"./Safemath.sol\";\r\n\r\ncontract ERC20 is Ownable {\r\n\r\n    using SafeMath for uint256;\r\n\r\n    // Make a string variable name\r\n    string private name_;\r\n    // Make a string variable symbol\r\n    string private symbol_;\r\n    // Make a uint8 variable decimals\r\n    uint256 private decimals_;\r\n\r\n    // Make a uint256 variable total supply\r\n    uint256 private totalSupply_;\r\n\r\n    // Make a mapping of the balances with an address that point to a uint256\r\n    mapping(address => uint256) private balances;\r\n\r\n    // Make a constructor with a string name and symbol, a uint8 decimals and a uint256 total\r\n    constructor(string memory name, string memory symbol, uint256 decimals) public {\r\n        // The string variable name is = to the input name\r\n        name_ = name;\r\n        // The string variable symbol is = to the input symbol\r\n        symbol_ = symbol;\r\n        // The uint8 variable decimals is = to the input decimals\r\n        decimals_ = decimals;\r\n    }\r\n\r\n    // Make a function name\r\n    function name() public view returns(string memory) {\r\n        // Returns the string variable name\r\n        return name_;\r\n    }\r\n\r\n    // Make a function symbol\r\n    function symbol() public view returns(string memory) {\r\n        // Returns the string variable symbol\r\n        return symbol_;\r\n    }\r\n\r\n    // Make a function decimals\r\n    function decimals() public view returns(uint256) {\r\n        // Returns the uint8 variable decimals\r\n        return decimals_;\r\n    }\r\n\r\n    // Make a function totalSupply\r\n    function totalSupply() public view returns(uint256) {\r\n        // returns the uint256 variable total supply\r\n        return totalSupply_;\r\n    }\r\n\r\n    // Make a function balanceOf with the account address\r\n    function balanceOf(address _account) public view returns(uint256) {\r\n        // Returns the input account address in the balances mapping\r\n        return balances[_account];\r\n    }\r\n\r\n    // Make function mint with the account address and the token amount\r\n    function mint(address _account, uint256 _amount) public onlyOwner {\r\n        // Require that the account address is not = to the 0 address\r\n        require(_account != address(0), \"mint to the zero address\");\r\n\r\n        // The total supply is = to the total supply + the input token amount\r\n        totalSupply_ = totalSupply_.add(_amount);\r\n        // The input account address in the balances mapping\r\n        // is = the input account address in the balances mapping + the input token amount\r\n        balances[_account] = balances[_account].add(_amount);\r\n    }\r\n\r\n    // Make a function transfer with a recipient address and the token amount\r\n    function transfer(address _recipient, uint256 _amount) public returns(bool) {\r\n        // Require that the recipient address is not = to the 0 address\r\n        require(_recipient != address(0), \"transfer to the zero address\");\r\n        // Require that the msg.sender in the balances mapping is >= to the input amount\r\n        require(balances[msg.sender] >= _amount, \"Insufficient balance\");\r\n\r\n        // The users address in the balances mapping\r\n        // is = to the users address in the balances mapping - the input token amount\r\n        balances[msg.sender] = balances[msg.sender].sub(_amount);\r\n        // The input recipient address in the balances mapping\r\n        // is = to the input recipient address in the balances mapping + the input token amount\r\n        balances[_recipient] = balances[_recipient].add(_amount);\r\n\r\n        // Returns true\r\n        return true;\r\n    }\r\n}\r\n",
  "sourcePath": "C:\\Truffle-Project\\contracts\\Token.sol",
  "compiler": {
    "name": "solc",
    "version": "0.5.12+commit.7709ece9.Emscripten.clang"
  },
  "schemaVersion": "3.2.0",
  "updatedAt": "2021-01-31T18:36:37.029Z",
  "devdoc": {
    "methods": {}
  },
  "userdoc": {
    "methods": {}
  }
}