{
  "contractName": "Ownable",
  "abi": [
    {
      "inputs": [],
      "payable": false,
      "stateMutability": "nonpayable",
      "type": "constructor"
    },
    {
      "constant": true,
      "inputs": [],
      "name": "owner",
      "outputs": [
        {
          "internalType": "address",
          "name": "",
          "type": "address"
        }
      ],
      "payable": false,
      "stateMutability": "view",
      "type": "function"
    }
  ],
  "bytecode": "0x60806040526000809054906101000a900473ffffffffffffffffffffffffffffffffffffffff16600160006101000a81548173ffffffffffffffffffffffffffffffffffffffff021916908373ffffffffffffffffffffffffffffffffffffffff16021790555034801561007257600080fd5b50336000806101000a81548173ffffffffffffffffffffffffffffffffffffffff021916908373ffffffffffffffffffffffffffffffffffffffff16021790555060cf806100c16000396000f3fe6080604052348015600f57600080fd5b506004361060285760003560e01c80638da5cb5b14602d575b600080fd5b60336075565b604051808273ffffffffffffffffffffffffffffffffffffffff1673ffffffffffffffffffffffffffffffffffffffff16815260200191505060405180910390f35b6000809054906101000a900473ffffffffffffffffffffffffffffffffffffffff168156fea265627a7a723158206702f195e1a7d7df09e078773c4a51f6f45e6ac903599ff5346959e6514eee3c64736f6c634300050c0032",
  "source": "pragma solidity 0.5.12;\r\n\r\n// Make a contract Ownable\r\ncontract Ownable {\r\n    \r\n    // The owner address\r\n    address public owner;\r\n    // The owner address converted into a payable address\r\n    address payable ownerPayable = address(uint160(owner));\r\n    \r\n    // Make an only owner modifier\r\n    modifier onlyOwner(){\r\n        // Require the users address to be the owner\r\n        require(msg.sender == owner);\r\n        // Contine the execution\r\n        _;\r\n    }\r\n    \r\n    // Make a constructor \r\n    constructor() public{\r\n        // The owner is = to the users address\r\n        owner = msg.sender;\r\n    }\r\n}\r\n",
  "sourcePath": "C:\\Truffle-Project\\contracts\\Ownable.sol",
  "compiler": {
    "name": "solc",
    "version": "0.5.12+commit.7709ece9.Emscripten.clang"
  },
  "schemaVersion": "3.2.0",
  "updatedAt": "2021-02-08T21:20:26.722Z",
  "devdoc": {
    "methods": {}
  },
  "userdoc": {
    "methods": {}
  }
}